{
  "contractName": "BlackList",
  "abi": [
    {
      "constant": true,
      "inputs": [],
      "name": "owner",
      "outputs": [
        {
          "name": "",
          "type": "address"
        }
      ],
      "payable": false,
      "stateMutability": "view",
      "type": "function"
    },
    {
      "constant": true,
      "inputs": [
        {
          "name": "",
          "type": "address"
        }
      ],
      "name": "isBlackListed",
      "outputs": [
        {
          "name": "",
          "type": "bool"
        }
      ],
      "payable": false,
      "stateMutability": "view",
      "type": "function"
    },
    {
      "constant": false,
      "inputs": [
        {
          "name": "newOwner",
          "type": "address"
        }
      ],
      "name": "transferOwnership",
      "outputs": [],
      "payable": false,
      "stateMutability": "nonpayable",
      "type": "function"
    },
    {
      "anonymous": false,
      "inputs": [
        {
          "indexed": true,
          "name": "_user",
          "type": "address"
        }
      ],
      "name": "AddedBlackList",
      "type": "event"
    },
    {
      "anonymous": false,
      "inputs": [
        {
          "indexed": true,
          "name": "_user",
          "type": "address"
        }
      ],
      "name": "RemovedBlackList",
      "type": "event"
    },
    {
      "anonymous": false,
      "inputs": [
        {
          "indexed": true,
          "name": "previousOwner",
          "type": "address"
        },
        {
          "indexed": true,
          "name": "newOwner",
          "type": "address"
        }
      ],
      "name": "OwnershipTransferred",
      "type": "event"
    },
    {
      "constant": true,
      "inputs": [
        {
          "name": "_maker",
          "type": "address"
        }
      ],
      "name": "getBlackListStatus",
      "outputs": [
        {
          "name": "",
          "type": "bool"
        }
      ],
      "payable": false,
      "stateMutability": "view",
      "type": "function"
    },
    {
      "constant": false,
      "inputs": [
        {
          "name": "_evilUser",
          "type": "address"
        }
      ],
      "name": "addBlackList",
      "outputs": [],
      "payable": false,
      "stateMutability": "nonpayable",
      "type": "function"
    },
    {
      "constant": false,
      "inputs": [
        {
          "name": "_clearedUser",
          "type": "address"
        }
      ],
      "name": "removeBlackList",
      "outputs": [],
      "payable": false,
      "stateMutability": "nonpayable",
      "type": "function"
    }
  ],
  "bytecode": "0x608060405260008054600160a060020a03191633179055610330806100256000396000f3006080604052600436106100775763ffffffff7c01000000000000000000000000000000000000000000000000000000006000350416630ecb93c0811461007c57806359bf1abe1461009f5780638da5cb5b146100d4578063e47d606014610105578063e4997dc514610126578063f2fde38b14610147575b600080fd5b34801561008857600080fd5b5061009d600160a060020a0360043516610168565b005b3480156100ab57600080fd5b506100c0600160a060020a03600435166101ce565b604080519115158252519081900360200190f35b3480156100e057600080fd5b506100e96101ec565b60408051600160a060020a039092168252519081900360200190f35b34801561011157600080fd5b506100c0600160a060020a03600435166101fb565b34801561013257600080fd5b5061009d600160a060020a0360043516610210565b34801561015357600080fd5b5061009d600160a060020a0360043516610270565b600054600160a060020a0316331461017f57600080fd5b600160a060020a0381166000818152600160208190526040808320805460ff1916909217909155517f42e160154868087d6bfdc0ca23d96a1c1cfa32f1b72ba9ba27b69b98a0d819dc9190a250565b600160a060020a031660009081526001602052604090205460ff1690565b600054600160a060020a031681565b60016020526000908152604090205460ff1681565b600054600160a060020a0316331461022757600080fd5b600160a060020a038116600081815260016020526040808220805460ff19169055517fd7e9ec6e6ecd65492dce6bf513cd6867560d49544421d0783ddf06e76c24470c9190a250565b600054600160a060020a0316331461028757600080fd5b600160a060020a038116151561029c57600080fd5b60008054604051600160a060020a03808516939216917f8be0079c531659141344cd1fd0a4f28419497f9722a3daafe3b4186f6b6457e091a36000805473ffffffffffffffffffffffffffffffffffffffff1916600160a060020a03929092169190911790555600a165627a7a723058206f3d0fd0800315068eb7f8ea4ba7a9fa08ca52431f7f0d9e7f791b8503d7725a0029",
  "source": "pragma solidity ^0.4.18;\n\nimport \"./Ownable.sol\";\n\ncontract BlackList is Ownable {\n\n    /////// Getter to allow the same blacklist to be used also by other contracts (including upgraded Tether) ///////\n    function getBlackListStatus(address _maker) external constant returns (bool) {\n        return isBlackListed[_maker];\n    }\n\n    mapping (address => bool) public isBlackListed;\n\n    function addBlackList (address _evilUser) public onlyOwner {\n        isBlackListed[_evilUser] = true;\n        emit AddedBlackList(_evilUser);\n    }\n\n    function removeBlackList (address _clearedUser) public onlyOwner {\n        isBlackListed[_clearedUser] = false;\n        emit RemovedBlackList(_clearedUser);\n    }\n\n    event AddedBlackList(address indexed _user);\n\n    event RemovedBlackList(address indexed _user);\n\n}\n",
  "sourcePath": "/Users/huyvu/Project/Quesera/sources/quesera-sm/BreStableCoin/contracts/BlackList.sol",
  "compiler": {
    "name": "solc",
    "version": "0.4.25+commit.59dbf8f1.Emscripten.clang"
  },
  "schemaVersion": "3.3.4",
  "updatedAt": "2022-04-09T09:32:52.133Z",
  "devdoc": {
    "methods": {
      "transferOwnership(address)": {
        "details": "Allows the current owner to transfer control of the contract to a newOwner.",
        "params": {
          "newOwner": "The address to transfer ownership to."
        }
      }
    }
  },
  "userdoc": {
    "methods": {
      "getBlackListStatus(address)": {
        "notice": "//// Getter to allow the same blacklist to be used also by other contracts (including upgraded Tether) ///////"
      }
    }
  }
}