{
  "contractName": "BREToken",
  "abi": [
    {
      "constant": true,
      "inputs": [],
      "name": "name",
      "outputs": [
        {
          "name": "",
          "type": "string"
        }
      ],
      "payable": false,
      "stateMutability": "view",
      "type": "function"
    },
    {
      "constant": true,
      "inputs": [],
      "name": "deprecated",
      "outputs": [
        {
          "name": "",
          "type": "bool"
        }
      ],
      "payable": false,
      "stateMutability": "view",
      "type": "function"
    },
    {
      "constant": false,
      "inputs": [
        {
          "name": "_evilUser",
          "type": "address"
        }
      ],
      "name": "addBlackList",
      "outputs": [],
      "payable": false,
      "stateMutability": "nonpayable",
      "type": "function"
    },
    {
      "constant": true,
      "inputs": [],
      "name": "upgradedAddress",
      "outputs": [
        {
          "name": "",
          "type": "address"
        }
      ],
      "payable": false,
      "stateMutability": "view",
      "type": "function"
    },
    {
      "constant": true,
      "inputs": [],
      "name": "decimals",
      "outputs": [
        {
          "name": "",
          "type": "uint8"
        }
      ],
      "payable": false,
      "stateMutability": "view",
      "type": "function"
    },
    {
      "constant": true,
      "inputs": [],
      "name": "maximumFee",
      "outputs": [
        {
          "name": "",
          "type": "uint256"
        }
      ],
      "payable": false,
      "stateMutability": "view",
      "type": "function"
    },
    {
      "constant": true,
      "inputs": [],
      "name": "_totalSupply",
      "outputs": [
        {
          "name": "",
          "type": "uint256"
        }
      ],
      "payable": false,
      "stateMutability": "view",
      "type": "function"
    },
    {
      "constant": false,
      "inputs": [],
      "name": "unpause",
      "outputs": [],
      "payable": false,
      "stateMutability": "nonpayable",
      "type": "function"
    },
    {
      "constant": true,
      "inputs": [
        {
          "name": "_maker",
          "type": "address"
        }
      ],
      "name": "getBlackListStatus",
      "outputs": [
        {
          "name": "",
          "type": "bool"
        }
      ],
      "payable": false,
      "stateMutability": "view",
      "type": "function"
    },
    {
      "constant": true,
      "inputs": [],
      "name": "paused",
      "outputs": [
        {
          "name": "",
          "type": "bool"
        }
      ],
      "payable": false,
      "stateMutability": "view",
      "type": "function"
    },
    {
      "constant": true,
      "inputs": [
        {
          "name": "_value",
          "type": "uint256"
        }
      ],
      "name": "calcFee",
      "outputs": [
        {
          "name": "",
          "type": "uint256"
        }
      ],
      "payable": false,
      "stateMutability": "view",
      "type": "function"
    },
    {
      "constant": false,
      "inputs": [],
      "name": "pause",
      "outputs": [],
      "payable": false,
      "stateMutability": "nonpayable",
      "type": "function"
    },
    {
      "constant": true,
      "inputs": [],
      "name": "owner",
      "outputs": [
        {
          "name": "",
          "type": "address"
        }
      ],
      "payable": false,
      "stateMutability": "view",
      "type": "function"
    },
    {
      "constant": true,
      "inputs": [],
      "name": "symbol",
      "outputs": [
        {
          "name": "",
          "type": "string"
        }
      ],
      "payable": false,
      "stateMutability": "view",
      "type": "function"
    },
    {
      "constant": false,
      "inputs": [
        {
          "name": "newBasisPoints",
          "type": "uint256"
        },
        {
          "name": "newMaxFee",
          "type": "uint256"
        }
      ],
      "name": "setParams",
      "outputs": [],
      "payable": false,
      "stateMutability": "nonpayable",
      "type": "function"
    },
    {
      "constant": true,
      "inputs": [],
      "name": "basisPointsRate",
      "outputs": [
        {
          "name": "",
          "type": "uint256"
        }
      ],
      "payable": false,
      "stateMutability": "view",
      "type": "function"
    },
    {
      "constant": true,
      "inputs": [
        {
          "name": "",
          "type": "address"
        }
      ],
      "name": "isBlackListed",
      "outputs": [
        {
          "name": "",
          "type": "bool"
        }
      ],
      "payable": false,
      "stateMutability": "view",
      "type": "function"
    },
    {
      "constant": false,
      "inputs": [
        {
          "name": "_clearedUser",
          "type": "address"
        }
      ],
      "name": "removeBlackList",
      "outputs": [],
      "payable": false,
      "stateMutability": "nonpayable",
      "type": "function"
    },
    {
      "constant": true,
      "inputs": [],
      "name": "MAX_UINT",
      "outputs": [
        {
          "name": "",
          "type": "uint256"
        }
      ],
      "payable": false,
      "stateMutability": "view",
      "type": "function"
    },
    {
      "constant": false,
      "inputs": [
        {
          "name": "newOwner",
          "type": "address"
        }
      ],
      "name": "transferOwnership",
      "outputs": [],
      "payable": false,
      "stateMutability": "nonpayable",
      "type": "function"
    },
    {
      "inputs": [],
      "payable": false,
      "stateMutability": "nonpayable",
      "type": "constructor"
    },
    {
      "anonymous": false,
      "inputs": [
        {
          "indexed": true,
          "name": "_blackListedUser",
          "type": "address"
        },
        {
          "indexed": false,
          "name": "_balance",
          "type": "uint256"
        }
      ],
      "name": "DestroyedBlackFunds",
      "type": "event"
    },
    {
      "anonymous": false,
      "inputs": [
        {
          "indexed": false,
          "name": "to",
          "type": "address"
        },
        {
          "indexed": false,
          "name": "amount",
          "type": "uint256"
        },
        {
          "indexed": false,
          "name": "time",
          "type": "uint256"
        }
      ],
      "name": "Issue",
      "type": "event"
    },
    {
      "anonymous": false,
      "inputs": [
        {
          "indexed": false,
          "name": "from",
          "type": "address"
        },
        {
          "indexed": false,
          "name": "amount",
          "type": "uint256"
        },
        {
          "indexed": false,
          "name": "time",
          "type": "uint256"
        }
      ],
      "name": "Burn",
      "type": "event"
    },
    {
      "anonymous": false,
      "inputs": [
        {
          "indexed": false,
          "name": "amount",
          "type": "uint256"
        }
      ],
      "name": "Redeem",
      "type": "event"
    },
    {
      "anonymous": false,
      "inputs": [
        {
          "indexed": false,
          "name": "newAddress",
          "type": "address"
        }
      ],
      "name": "Deprecate",
      "type": "event"
    },
    {
      "anonymous": false,
      "inputs": [
        {
          "indexed": true,
          "name": "_user",
          "type": "address"
        }
      ],
      "name": "AddedBlackList",
      "type": "event"
    },
    {
      "anonymous": false,
      "inputs": [
        {
          "indexed": true,
          "name": "_user",
          "type": "address"
        }
      ],
      "name": "RemovedBlackList",
      "type": "event"
    },
    {
      "anonymous": false,
      "inputs": [
        {
          "indexed": false,
          "name": "feeBasisPoints",
          "type": "uint256"
        },
        {
          "indexed": false,
          "name": "maxFee",
          "type": "uint256"
        }
      ],
      "name": "Params",
      "type": "event"
    },
    {
      "anonymous": false,
      "inputs": [],
      "name": "Pause",
      "type": "event"
    },
    {
      "anonymous": false,
      "inputs": [],
      "name": "Unpause",
      "type": "event"
    },
    {
      "anonymous": false,
      "inputs": [
        {
          "indexed": true,
          "name": "previousOwner",
          "type": "address"
        },
        {
          "indexed": true,
          "name": "newOwner",
          "type": "address"
        }
      ],
      "name": "OwnershipTransferred",
      "type": "event"
    },
    {
      "anonymous": false,
      "inputs": [
        {
          "indexed": true,
          "name": "owner",
          "type": "address"
        },
        {
          "indexed": true,
          "name": "spender",
          "type": "address"
        },
        {
          "indexed": false,
          "name": "value",
          "type": "uint256"
        }
      ],
      "name": "Approval",
      "type": "event"
    },
    {
      "anonymous": false,
      "inputs": [
        {
          "indexed": true,
          "name": "from",
          "type": "address"
        },
        {
          "indexed": true,
          "name": "to",
          "type": "address"
        },
        {
          "indexed": false,
          "name": "value",
          "type": "uint256"
        }
      ],
      "name": "Transfer",
      "type": "event"
    },
    {
      "constant": false,
      "inputs": [
        {
          "name": "_to",
          "type": "address"
        },
        {
          "name": "_value",
          "type": "uint256"
        }
      ],
      "name": "transfer",
      "outputs": [
        {
          "name": "",
          "type": "bool"
        }
      ],
      "payable": false,
      "stateMutability": "nonpayable",
      "type": "function"
    },
    {
      "constant": false,
      "inputs": [
        {
          "name": "_from",
          "type": "address"
        },
        {
          "name": "_to",
          "type": "address"
        },
        {
          "name": "_value",
          "type": "uint256"
        }
      ],
      "name": "transferFrom",
      "outputs": [
        {
          "name": "",
          "type": "bool"
        }
      ],
      "payable": false,
      "stateMutability": "nonpayable",
      "type": "function"
    },
    {
      "constant": true,
      "inputs": [
        {
          "name": "who",
          "type": "address"
        }
      ],
      "name": "balanceOf",
      "outputs": [
        {
          "name": "",
          "type": "uint256"
        }
      ],
      "payable": false,
      "stateMutability": "view",
      "type": "function"
    },
    {
      "constant": true,
      "inputs": [
        {
          "name": "who",
          "type": "address"
        }
      ],
      "name": "oldBalanceOf",
      "outputs": [
        {
          "name": "",
          "type": "uint256"
        }
      ],
      "payable": false,
      "stateMutability": "view",
      "type": "function"
    },
    {
      "constant": false,
      "inputs": [
        {
          "name": "_spender",
          "type": "address"
        },
        {
          "name": "_value",
          "type": "uint256"
        }
      ],
      "name": "approve",
      "outputs": [
        {
          "name": "",
          "type": "bool"
        }
      ],
      "payable": false,
      "stateMutability": "nonpayable",
      "type": "function"
    },
    {
      "constant": false,
      "inputs": [
        {
          "name": "_spender",
          "type": "address"
        },
        {
          "name": "_addedValue",
          "type": "uint256"
        }
      ],
      "name": "increaseApproval",
      "outputs": [
        {
          "name": "",
          "type": "bool"
        }
      ],
      "payable": false,
      "stateMutability": "nonpayable",
      "type": "function"
    },
    {
      "constant": false,
      "inputs": [
        {
          "name": "_spender",
          "type": "address"
        },
        {
          "name": "_subtractedValue",
          "type": "uint256"
        }
      ],
      "name": "decreaseApproval",
      "outputs": [
        {
          "name": "",
          "type": "bool"
        }
      ],
      "payable": false,
      "stateMutability": "nonpayable",
      "type": "function"
    },
    {
      "constant": true,
      "inputs": [
        {
          "name": "_owner",
          "type": "address"
        },
        {
          "name": "_spender",
          "type": "address"
        }
      ],
      "name": "allowance",
      "outputs": [
        {
          "name": "remaining",
          "type": "uint256"
        }
      ],
      "payable": false,
      "stateMutability": "view",
      "type": "function"
    },
    {
      "constant": false,
      "inputs": [
        {
          "name": "_upgradedAddress",
          "type": "address"
        }
      ],
      "name": "deprecate",
      "outputs": [],
      "payable": false,
      "stateMutability": "nonpayable",
      "type": "function"
    },
    {
      "constant": true,
      "inputs": [],
      "name": "totalSupply",
      "outputs": [
        {
          "name": "",
          "type": "uint256"
        }
      ],
      "payable": false,
      "stateMutability": "view",
      "type": "function"
    },
    {
      "constant": false,
      "inputs": [
        {
          "name": "user",
          "type": "address"
        }
      ],
      "name": "addWhileList",
      "outputs": [],
      "payable": false,
      "stateMutability": "nonpayable",
      "type": "function"
    },
    {
      "constant": false,
      "inputs": [
        {
          "name": "user",
          "type": "address"
        }
      ],
      "name": "deleteWhileList",
      "outputs": [],
      "payable": false,
      "stateMutability": "nonpayable",
      "type": "function"
    },
    {
      "constant": false,
      "inputs": [
        {
          "name": "to",
          "type": "address"
        },
        {
          "name": "amount",
          "type": "uint256"
        }
      ],
      "name": "issue",
      "outputs": [],
      "payable": false,
      "stateMutability": "nonpayable",
      "type": "function"
    },
    {
      "constant": false,
      "inputs": [
        {
          "name": "from",
          "type": "address"
        },
        {
          "name": "amount",
          "type": "uint256"
        }
      ],
      "name": "burn",
      "outputs": [],
      "payable": false,
      "stateMutability": "nonpayable",
      "type": "function"
    },
    {
      "constant": false,
      "inputs": [
        {
          "name": "amount",
          "type": "uint256"
        }
      ],
      "name": "redeem",
      "outputs": [],
      "payable": false,
      "stateMutability": "nonpayable",
      "type": "function"
    },
    {
      "constant": false,
      "inputs": [
        {
          "name": "_blackListedUser",
          "type": "address"
        }
      ],
      "name": "destroyBlackFunds",
      "outputs": [],
      "payable": false,
      "stateMutability": "nonpayable",
      "type": "function"
    }
  ],
  "bytecode": "0x60806040526002805460a060020a60ff0219169055600060038190556004553480156200002b57600080fd5b5060028054600160a060020a03191633179055600060085560408051808201909152600a8082527f5553444620546f6b656e00000000000000000000000000000000000000000000602090920191825262000089916005916200012f565b506040805180820190915260048082527f55534446000000000000000000000000000000000000000000000000000000006020909201918252620000d0916006916200012f565b506007805460ff1990811660061790915560028054600160a060020a03908116600090815260208181526040808320839055600a805460a060020a60ff021916905593549092168152600b9091522080549091166001179055620001d4565b828054600181600116156101000203166002900490600052602060002090601f016020900481019282601f106200017257805160ff1916838001178555620001a2565b82800160010185558215620001a2579182015b82811115620001a257825182559160200191906001019062000185565b50620001b0929150620001b4565b5090565b620001d191905b80821115620001b05760008155600101620001bb565b90565b611dd080620001e46000396000f3006080604052600436106101c15763ffffffff7c010000000000000000000000000000000000000000000000000000000060003504166306fdde0381146101c65780630753c30c14610250578063095ea7b3146102735780630e136b19146102ab5780630ecb93c0146102c057806318160ddd146102e157806323b872dd1461030857806326976e3f14610332578063313ce56714610363578063353907141461038e5780633eaaf86b146103a35780633f4ba83a146103b857806359bf1abe146103cd5780635c975abb146103ee578063661884631461040357806370a082311461042757806375dc7d8c146104485780638456cb5914610460578063867904b4146104755780638da5cb5b146104995780638ddfd2fa146104ae57806395d89b41146104cf5780639dc29fac146104e4578063a9059cbb14610508578063b169cb2f1461052c578063b7a3446c1461054d578063c0324c771461056e578063d73dd62314610589578063db006a75146105ad578063dd62ed3e146105c5578063dd644f72146105ec578063e47d606014610601578063e4997dc514610622578063e5b5019a14610643578063f2fde38b14610658578063f3bdc22814610679575b600080fd5b3480156101d257600080fd5b506101db61069a565b6040805160208082528351818301528351919283929083019185019080838360005b838110156102155781810151838201526020016101fd565b50505050905090810190601f1680156102425780820380516001836020036101000a031916815260200191505b509250505060405180910390f35b34801561025c57600080fd5b50610271600160a060020a0360043516610728565b005b34801561027f57600080fd5b50610297600160a060020a03600435166024356107d5565b604080519115158252519081900360200190f35b3480156102b757600080fd5b506102976108bc565b3480156102cc57600080fd5b50610271600160a060020a03600435166108cc565b3480156102ed57600080fd5b506102f661092f565b60408051918252519081900360200190f35b34801561031457600080fd5b50610297600160a060020a03600435811690602435166044356109eb565b34801561033e57600080fd5b50610347610b02565b60408051600160a060020a039092168252519081900360200190f35b34801561036f57600080fd5b50610378610b11565b6040805160ff9092168252519081900360200190f35b34801561039a57600080fd5b506102f6610b1a565b3480156103af57600080fd5b506102f6610b20565b3480156103c457600080fd5b50610271610b26565b3480156103d957600080fd5b50610297600160a060020a0360043516610b9e565b3480156103fa57600080fd5b50610297610bc0565b34801561040f57600080fd5b50610297600160a060020a0360043516602435610bd0565b34801561043357600080fd5b506102f6600160a060020a0360043516610c7b565b34801561045457600080fd5b506102f6600435610d3b565b34801561046c57600080fd5b50610271610d7b565b34801561048157600080fd5b50610271600160a060020a0360043516602435610df8565b3480156104a557600080fd5b50610347610f32565b3480156104ba57600080fd5b50610271600160a060020a0360043516610f41565b3480156104db57600080fd5b506101db610f79565b3480156104f057600080fd5b50610271600160a060020a0360043516602435610fd4565b34801561051457600080fd5b50610297600160a060020a0360043516602435611133565b34801561053857600080fd5b50610271600160a060020a03600435166111fb565b34801561055957600080fd5b506102f6600160a060020a0360043516611236565b34801561057a57600080fd5b50610271600435602435611254565b34801561059557600080fd5b50610297600160a060020a03600435166024356112ec565b3480156105b957600080fd5b50610271600435611397565b3480156105d157600080fd5b506102f6600160a060020a03600435811690602435166114ba565b3480156105f857600080fd5b506102f6611549565b34801561060d57600080fd5b50610297600160a060020a036004351661154f565b34801561062e57600080fd5b50610271600160a060020a0360043516611564565b34801561064f57600080fd5b506102f66115c4565b34801561066457600080fd5b50610271600160a060020a03600435166115ca565b34801561068557600080fd5b50610271600160a060020a036004351661165f565b6005805460408051602060026001851615610100026000190190941693909304601f810184900484028201840190925281815292918301828280156107205780601f106106f557610100808354040283529160200191610720565b820191906000526020600020905b81548152906001019060200180831161070357829003601f168201915b505050505081565b600254600160a060020a0316331461073f57600080fd5b600160a060020a038116151561075457600080fd5b600a805460a060020a74ff0000000000000000000000000000000000000000199091161773ffffffffffffffffffffffffffffffffffffffff1916600160a060020a03831690811790915560408051918252517fcc358699805e9a8b7f77b522628c7cb9abd07d9efb86b6fb616af1609036a99e916020908290030190a150565b60025460009060a060020a900460ff16156107ef57600080fd5b600a5460a060020a900460ff16156108a957600a54604080517faee92d33000000000000000000000000000000000000000000000000000000008152336004820152600160a060020a038681166024830152604482018690529151919092169163aee92d339160648083019260209291908290030181600087803b15801561087657600080fd5b505af115801561088a573d6000803e3d6000fd5b505050506040513d60208110156108a057600080fd5b505190506108b6565b6108b38383611762565b90505b92915050565b600a5460a060020a900460ff1681565b600254600160a060020a031633146108e357600080fd5b600160a060020a038116600081815260096020526040808220805460ff19166001179055517f42e160154868087d6bfdc0ca23d96a1c1cfa32f1b72ba9ba27b69b98a0d819dc9190a250565b600a5460009060a060020a900460ff16156109e357600a60009054906101000a9004600160a060020a0316600160a060020a03166318160ddd6040518163ffffffff167c0100000000000000000000000000000000000000000000000000000000028152600401602060405180830381600087803b1580156109b057600080fd5b505af11580156109c4573d6000803e3d6000fd5b505050506040513d60208110156109da57600080fd5b505190506109e8565b506008545b90565b60025460009060a060020a900460ff1615610a0557600080fd5b600160a060020a03841660009081526009602052604090205460ff1615610a2b57600080fd5b600a5460a060020a900460ff1615610aed57600a54604080517f8b477adb000000000000000000000000000000000000000000000000000000008152336004820152600160a060020a03878116602483015286811660448301526064820186905291519190921691638b477adb9160848083019260209291908290030181600087803b158015610aba57600080fd5b505af1158015610ace573d6000803e3d6000fd5b505050506040513d6020811015610ae457600080fd5b50519050610afb565b610af88484846117c8565b90505b9392505050565b600a54600160a060020a031681565b60075460ff1681565b60045481565b60085481565b600254600160a060020a03163314610b3d57600080fd5b60025460a060020a900460ff161515610b5557600080fd5b6002805474ff0000000000000000000000000000000000000000191690556040517f7805862f689e2f13df9f062ff482ad3ad112aca9e0847911ed832e158c525b3390600090a1565b600160a060020a03811660009081526009602052604090205460ff165b919050565b60025460a060020a900460ff1681565b60025460009060a060020a900460ff1615610bea57600080fd5b600a5460a060020a900460ff1615610c7157600a54604080517f6001279f000000000000000000000000000000000000000000000000000000008152336004820152600160a060020a0386811660248301526044820186905291519190921691636001279f9160648083019260209291908290030181600087803b15801561087657600080fd5b6108b38383611a0b565b600a5460009060a060020a900460ff1615610d2b57600a54604080517f70a08231000000000000000000000000000000000000000000000000000000008152600160a060020a038581166004830152915191909216916370a082319160248083019260209291908290030181600087803b158015610cf857600080fd5b505af1158015610d0c573d6000803e3d6000fd5b505050506040513d6020811015610d2257600080fd5b50519050610bbb565b610d3482611afd565b9050610bbb565b600080610d65612710610d5960035486611b1890919063ffffffff16565b9063ffffffff611b4316565b90506004548111156108b6575060045492915050565b600254600160a060020a03163314610d9257600080fd5b60025460a060020a900460ff1615610da957600080fd5b6002805474ff0000000000000000000000000000000000000000191660a060020a1790556040517f6985a02210a168e66602d3235cb6db0e70f92b3ba4d376a33c0f3d9434bff62590600090a1565b336000818152600b602052604090205460ff161515600114610e52576040805160e560020a62461bcd0281526020600482015260106024820152600080516020611d65833981519152604482015290519081900360640190fd5b811515610e5e57600080fd5b600160a060020a038316600090815260208190526040902054610e87908363ffffffff611b5a16565b600160a060020a038416600090815260208190526040902055600854610eb3908363ffffffff611b5a16565b60085560408051600160a060020a038516815260208101849052428183015290517f7bbff60f84adf6a9b6881c0bae9f63e6f324d55f6ddeb2cf3213414a2f058d4a9181900360600190a1604080518381529051600160a060020a03851691600091600080516020611d858339815191529181900360200190a3505050565b600254600160a060020a031681565b600254600160a060020a03163314610f5857600080fd5b600160a060020a03166000908152600b60205260409020805460ff19169055565b6006805460408051602060026001851615610100026000190190941693909304601f810184900484028201840190925281815292918301828280156107205780601f106106f557610100808354040283529160200191610720565b336000818152600b602052604090205460ff16151560011461102e576040805160e560020a62461bcd0281526020600482015260106024820152600080516020611d65833981519152604482015290519081900360640190fd5b81151561103a57600080fd5b600160a060020a03831660009081526020819052604090205482111561105f57600080fd5b600160a060020a038316600090815260208190526040902054611088908363ffffffff611b6916565b600160a060020a0384166000908152602081905260409020556008546110b4908363ffffffff611b6916565b60085560408051600160a060020a038516815260208101849052428183015290517f49995e5dd6158cf69ad3e9777c46755a1a826a446c6416992167462dad033b2a9181900360600190a1604080518381529051600091600160a060020a03861691600080516020611d858339815191529181900360200190a3505050565b60025460009060a060020a900460ff161561114d57600080fd5b3360009081526009602052604090205460ff161561116a57600080fd5b600a5460a060020a900460ff16156111f157600a54604080517f6e18980a000000000000000000000000000000000000000000000000000000008152336004820152600160a060020a0386811660248301526044820186905291519190921691636e18980a9160648083019260209291908290030181600087803b15801561087657600080fd5b6108b38383611b7b565b600254600160a060020a0316331461121257600080fd5b600160a060020a03166000908152600b60205260409020805460ff19166001179055565b600a5460009060a060020a900460ff1615610bbb57610d3482611afd565b600254600160a060020a0316331461126b57600080fd5b6014821061127857600080fd5b6032811061128557600080fd5b60038290556007546112a490829060ff16600a0a63ffffffff611b1816565b600481905560035460408051918252602082019290925281517fb044a1e409eac5c48e5af22d4af52670dd1a99059537a78b31b48c6500a6354e929181900390910190a15050565b60025460009060a060020a900460ff161561130657600080fd5b600a5460a060020a900460ff161561138d57600a54604080517fa9538157000000000000000000000000000000000000000000000000000000008152336004820152600160a060020a038681166024830152604482018690529151919092169163a95381579160648083019260209291908290030181600087803b15801561087657600080fd5b6108b38383611bd1565b336000818152600b602052604090205460ff1615156001146113f1576040805160e560020a62461bcd0281526020600482015260106024820152600080516020611d65833981519152604482015290519081900360640190fd5b600854611404908363ffffffff611b6916565b600855600254600160a060020a0316600090815260208190526040902054611432908363ffffffff611b6916565b600254600160a060020a03166000908152602081815260409182902092909255805184815290517f702d5967f45f6513a38ffc42d6ba9bf230bd40e8f53b16363c7eb4fd2deb9a44929181900390910190a1600254604080518481529051600092600160a060020a031691600080516020611d85833981519152919081900360200190a35050565b600a5460009060a060020a900460ff161561153f57600a54604080517fdd62ed3e000000000000000000000000000000000000000000000000000000008152600160a060020a03868116600483015285811660248301529151919092169163dd62ed3e9160448083019260209291908290030181600087803b15801561087657600080fd5b6108b38383611c6a565b60035481565b60096020526000908152604090205460ff1681565b600254600160a060020a0316331461157b57600080fd5b600160a060020a038116600081815260096020526040808220805460ff19169055517fd7e9ec6e6ecd65492dce6bf513cd6867560d49544421d0783ddf06e76c24470c9190a250565b60001981565b600254600160a060020a031633146115e157600080fd5b600160a060020a03811615156115f657600080fd5b600254604051600160a060020a038084169216907f8be0079c531659141344cd1fd0a4f28419497f9722a3daafe3b4186f6b6457e090600090a36002805473ffffffffffffffffffffffffffffffffffffffff1916600160a060020a0392909216919091179055565b336000818152600b602052604081205490919060ff1615156001146116bc576040805160e560020a62461bcd0281526020600482015260106024820152600080516020611d65833981519152604482015290519081900360640190fd5b600160a060020a03831660009081526009602052604090205460ff1615156116e357600080fd5b6116ec83610c7b565b600160a060020a03841660009081526020819052604081205560085490925061171b908363ffffffff611b6916565b600855604080518381529051600160a060020a038516917f61e6e66b0d6339b2980aecc6ccc0039736791f0ccde9ed512e789a7fbdd698c6919081900360200190a2505050565b336000818152600160209081526040808320600160a060020a038716808552908352818420869055815186815291519394909390927f8c5be1e5ebec7d5bd14f71427d1e84f3dd0314c0f7b2291e5b200ac8c7c3b925928290030190a350600192915050565b60008080600160a060020a03851615156117e157600080fd5b600160a060020a03861660009081526020819052604090205484111561180657600080fd5b600160a060020a038616600090815260016020908152604080832033845290915290205484111561183657600080fd5b61183f84610d3b565b9150611851848363ffffffff611b6916565b600160a060020a03871660009081526020819052604090205490915061187d908563ffffffff611b6916565b600160a060020a0380881660009081526020819052604080822093909355908716815220546118b2908263ffffffff611b5a16565b600160a060020a03808716600090815260208181526040808320949094559189168152600182528281203382529091522054600019111561194657600160a060020a0386166000908152600160209081526040808320338452909152902054611921908563ffffffff611b6916565b600160a060020a03871660009081526001602090815260408083203384529091529020555b84600160a060020a031686600160a060020a0316600080516020611d85833981519152836040518082815260200191505060405180910390a360008211156119ff57600254600160a060020a03166000908152602081905260409020546119b3908363ffffffff611b5a16565b60028054600160a060020a03908116600090815260208181526040918290209490945591548251868152925190821693918a1692600080516020611d8583398151915292908290030190a35b50600195945050505050565b336000908152600160209081526040808320600160a060020a038616845290915281205480831115611a6057336000908152600160209081526040808320600160a060020a0388168452909152812055611a95565b611a70818463ffffffff611b6916565b336000908152600160209081526040808320600160a060020a03891684529091529020555b336000818152600160209081526040808320600160a060020a0389168085529083529281902054815190815290519293927f8c5be1e5ebec7d5bd14f71427d1e84f3dd0314c0f7b2291e5b200ac8c7c3b925929181900390910190a3600191505b5092915050565b600160a060020a031660009081526020819052604090205490565b600080831515611b2b5760009150611af6565b50828202828482811515611b3b57fe5b0414610afb57fe5b6000808284811515611b5157fe5b04949350505050565b600082820183811015610afb57fe5b600082821115611b7557fe5b50900390565b6000806000611b8984610d3b565b9150611b9b848363ffffffff611b6916565b9050611ba78582611c95565b506000821115611bc957600254611bc790600160a060020a031683611c95565b505b505092915050565b336000908152600160209081526040808320600160a060020a0386168452909152812054611c05908363ffffffff611b5a16565b336000818152600160209081526040808320600160a060020a0389168085529083529281902085905580519485525191937f8c5be1e5ebec7d5bd14f71427d1e84f3dd0314c0f7b2291e5b200ac8c7c3b925929081900390910190a350600192915050565b600160a060020a03918216600090815260016020908152604080832093909416825291909152205490565b6000600160a060020a0383161515611cac57600080fd5b33600090815260208190526040902054821115611cc857600080fd5b33600090815260208190526040902054611ce8908363ffffffff611b6916565b3360009081526020819052604080822092909255600160a060020a03851681522054611d1a908363ffffffff611b5a16565b600160a060020a03841660008181526020818152604091829020939093558051858152905191923392600080516020611d858339815191529281900390910190a35060019291505056004e6f7420696e207768696c656c69737400000000000000000000000000000000ddf252ad1be2c89b69c2b068fc378daa952ba7f163c4a11628f55a4df523b3efa165627a7a7230582039b22b391e803194764b1b70981e7456de622b9d7889ce02b14bf82caefb959c0029",
  "source": "pragma solidity ^0.4.18;\n\nimport \"./StandardTokenWithFees.sol\";\nimport \"./Pausable.sol\";\nimport \"./BlackList.sol\";\n\ncontract UpgradedStandardToken is StandardToken {\n    // those methods are called by the legacy contract\n    // and they must ensure msg.sender to be the contract address\n    uint256 public _totalSupply;\n\n    function transferByLegacy(\n        address from,\n        address to,\n        uint256 value\n    ) public returns (bool);\n\n    function transferFromByLegacy(\n        address sender,\n        address from,\n        address spender,\n        uint256 value\n    ) public returns (bool);\n\n    function approveByLegacy(\n        address from,\n        address spender,\n        uint256 value\n    ) public returns (bool);\n\n    function increaseApprovalByLegacy(\n        address from,\n        address spender,\n        uint256 addedValue\n    ) public returns (bool);\n\n    function decreaseApprovalByLegacy(\n        address from,\n        address spender,\n        uint256 subtractedValue\n    ) public returns (bool);\n}\n\ncontract BREToken is Pausable, StandardTokenWithFees, BlackList {\n    address public upgradedAddress;\n    bool public deprecated;\n    mapping(address => bool) whilelist;\n\n    //  The contract can be initialized with a number of tokens\n    //  All the tokens are deposited to the owner address\n    //\n    // @param _balance Initial supply of the contract\n    // @param _name Token Name\n    // @param _symbol Token symbol\n    // @param _decimals Token decimals\n    constructor() public {\n        _totalSupply = 0;\n        name = \"USDF Token\";\n        symbol = \"USDF\";\n        decimals = 6;\n        balances[owner] = 0;\n        deprecated = false;\n        whilelist[owner]=true;\n    }\n\n    // Forward ERC20 methods to upgraded contract if this one is deprecated\n    function transfer(address _to, uint256 _value)\n        public\n        whenNotPaused\n        returns (bool)\n    {\n        require(!isBlackListed[msg.sender]);\n        if (deprecated) {\n            return\n                UpgradedStandardToken(upgradedAddress).transferByLegacy(\n                    msg.sender,\n                    _to,\n                    _value\n                );\n        } else {\n            return super.transfer(_to, _value);\n        }\n    }\n\n    // Forward ERC20 methods to upgraded contract if this one is deprecated\n    function transferFrom(\n        address _from,\n        address _to,\n        uint256 _value\n    ) public whenNotPaused returns (bool) {\n        require(!isBlackListed[_from]);\n        if (deprecated) {\n            return\n                UpgradedStandardToken(upgradedAddress).transferFromByLegacy(\n                    msg.sender,\n                    _from,\n                    _to,\n                    _value\n                );\n        } else {\n            return super.transferFrom(_from, _to, _value);\n        }\n    }\n\n    // Forward ERC20 methods to upgraded contract if this one is deprecated\n    function balanceOf(address who) public constant returns (uint256) {\n        if (deprecated) {\n            return UpgradedStandardToken(upgradedAddress).balanceOf(who);\n        } else {\n            return super.balanceOf(who);\n        }\n    }\n\n    // Allow checks of balance at time of deprecation\n    function oldBalanceOf(address who) public constant returns (uint256) {\n        if (deprecated) {\n            return super.balanceOf(who);\n        }\n    }\n\n    // Forward ERC20 methods to upgraded contract if this one is deprecated\n    function approve(address _spender, uint256 _value)\n        public\n        whenNotPaused\n        returns (bool)\n    {\n        if (deprecated) {\n            return\n                UpgradedStandardToken(upgradedAddress).approveByLegacy(\n                    msg.sender,\n                    _spender,\n                    _value\n                );\n        } else {\n            return super.approve(_spender, _value);\n        }\n    }\n\n    function increaseApproval(address _spender, uint256 _addedValue)\n        public\n        whenNotPaused\n        returns (bool)\n    {\n        if (deprecated) {\n            return\n                UpgradedStandardToken(upgradedAddress).increaseApprovalByLegacy(\n                    msg.sender,\n                    _spender,\n                    _addedValue\n                );\n        } else {\n            return super.increaseApproval(_spender, _addedValue);\n        }\n    }\n\n    function decreaseApproval(address _spender, uint256 _subtractedValue)\n        public\n        whenNotPaused\n        returns (bool)\n    {\n        if (deprecated) {\n            return\n                UpgradedStandardToken(upgradedAddress).decreaseApprovalByLegacy(\n                    msg.sender,\n                    _spender,\n                    _subtractedValue\n                );\n        } else {\n            return super.decreaseApproval(_spender, _subtractedValue);\n        }\n    }\n\n    // Forward ERC20 methods to upgraded contract if this one is deprecated\n    function allowance(address _owner, address _spender)\n        public\n        constant\n        returns (uint256 remaining)\n    {\n        if (deprecated) {\n            return StandardToken(upgradedAddress).allowance(_owner, _spender);\n        } else {\n            return super.allowance(_owner, _spender);\n        }\n    }\n\n    // deprecate current contract in favour of a new one\n    function deprecate(address _upgradedAddress) public onlyOwner {\n        require(_upgradedAddress != address(0));\n        deprecated = true;\n        upgradedAddress = _upgradedAddress;\n        emit Deprecate(_upgradedAddress);\n    }\n\n    // deprecate current contract if favour of a new one\n    function totalSupply() public constant returns (uint256) {\n        if (deprecated) {\n            return StandardToken(upgradedAddress).totalSupply();\n        } else {\n            return _totalSupply;\n        }\n    }\n\n    function addWhileList(address user) external onlyOwner {\n        whilelist[user] = true;\n    }\n\n    function deleteWhileList(address user) external onlyOwner {\n        whilelist[user] = false;\n    }\n\n    modifier onlyWhileList(address user) {\n        require(whilelist[user] == true, \"Not in whilelist\");\n        _;\n    }\n\n    // Issue a new amount of tokens\n    // these tokens are deposited into the \"to\" address\n    //\n    // @param _amount Number of tokens to be issued\n    function issue(address to, uint256 amount) public onlyWhileList(msg.sender)  {\n        require(amount != 0);\n        balances[to] = balances[to].add(amount);\n        _totalSupply = _totalSupply.add(amount);\n        emit Issue(to, amount, block.timestamp);\n        emit Transfer(address(0), to, amount);\n    }\n\n    function burn(address from, uint256 amount) public onlyWhileList(msg.sender)  {\n        require(amount != 0);\n        require(amount <= balances[from]);\n        balances[from] = balances[from].sub(amount);\n        _totalSupply = _totalSupply.sub(amount);\n        emit Burn(from, amount, block.timestamp);\n        emit Transfer(from, address(0), amount);\n    }\n\n    // Redeem tokens.\n    // These tokens are withdrawn from the owner address\n    // if the balance must be enough to cover the redeem\n    // or the call will fail.\n    // @param _amount Number of tokens to be issued\n    function redeem(uint256 amount) public onlyWhileList(msg.sender) {\n        _totalSupply = _totalSupply.sub(amount);\n        balances[owner] = balances[owner].sub(amount);\n        emit Redeem(amount);\n        emit Transfer(owner, address(0), amount);\n    }\n\n    function destroyBlackFunds(address _blackListedUser) public onlyWhileList(msg.sender)  {\n        require(isBlackListed[_blackListedUser]);\n        uint256 dirtyFunds = balanceOf(_blackListedUser);\n        balances[_blackListedUser] = 0;\n        _totalSupply = _totalSupply.sub(dirtyFunds);\n        emit DestroyedBlackFunds(_blackListedUser, dirtyFunds);\n    }\n\n    event DestroyedBlackFunds(\n        address indexed _blackListedUser,\n        uint256 _balance\n    );\n\n    // Called when new token are issued\n    event Issue(address to, uint256 amount, uint256 time);\n\n    // Called when tokens are burned\n    event Burn(address from, uint256 amount, uint256 time);\n\n    // Called when tokens are redeemed\n    event Redeem(uint256 amount);\n\n    // Called when contract is deprecated\n    event Deprecate(address newAddress);\n}\n",
  "sourcePath": "/Users/huyvu/Project/Quesera/sources/quesera-sm/BreStableCoin/contracts/BREToken.sol",
  "compiler": {
    "name": "solc",
    "version": "0.4.25+commit.59dbf8f1.Emscripten.clang"
  },
  "schemaVersion": "3.3.4",
  "updatedAt": "2022-04-09T09:33:18.233Z",
  "networkType": "ethereum",
  "devdoc": {
    "methods": {
      "pause()": {
        "details": "called by the owner to pause, triggers stopped state"
      },
      "transferOwnership(address)": {
        "details": "Allows the current owner to transfer control of the contract to a newOwner.",
        "params": {
          "newOwner": "The address to transfer ownership to."
        }
      },
      "unpause()": {
        "details": "called by the owner to unpause, returns to normal state"
      }
    }
  },
  "userdoc": {
    "methods": {
      "getBlackListStatus(address)": {
        "notice": "//// Getter to allow the same blacklist to be used also by other contracts (including upgraded Tether) ///////"
      }
    }
  }
}